{
  "_format": "hh-sol-artifact-1",
  "contractName": "Upload",
  "sourceName": "contracts/Upload.sol",
  "abi": [
    {
      "inputs": [
        {
          "internalType": "address",
          "name": "_user",
          "type": "address"
        },
        {
          "internalType": "string",
          "name": "url",
          "type": "string"
        }
      ],
      "name": "add",
      "outputs": [],
      "stateMutability": "nonpayable",
      "type": "function"
    },
    {
      "inputs": [
        {
          "internalType": "address",
          "name": "_user",
          "type": "address"
        }
      ],
      "name": "disallow",
      "outputs": [],
      "stateMutability": "nonpayable",
      "type": "function"
    },
    {
      "inputs": [
        {
          "internalType": "address",
          "name": "_user",
          "type": "address"
        }
      ],
      "name": "display",
      "outputs": [
        {
          "internalType": "string[]",
          "name": "",
          "type": "string[]"
        }
      ],
      "stateMutability": "view",
      "type": "function"
    },
    {
      "inputs": [
        {
          "internalType": "address",
          "name": "_user",
          "type": "address"
        }
      ],
      "name": "shareAccess",
      "outputs": [],
      "stateMutability": "nonpayable",
      "type": "function"
    },
    {
      "inputs": [],
      "name": "shareAccessList",
      "outputs": [
        {
          "components": [
            {
              "internalType": "address",
              "name": "user",
              "type": "address"
            },
            {
              "internalType": "bool",
              "name": "access",
              "type": "bool"
            }
          ],
          "internalType": "struct Upload.Access[]",
          "name": "",
          "type": "tuple[]"
        }
      ],
      "stateMutability": "view",
      "type": "function"
    }
  ],
  "bytecode": "0x608060405234801561001057600080fd5b5061141e806100206000396000f3fe608060405234801561001057600080fd5b50600436106100575760003560e01c806336d6da551461005c578063a9ed9cb814610078578063d4f3753014610094578063e07554d2146100b0578063eb39113f146100ce575b600080fd5b61007660048036038101906100719190610d3e565b6100fe565b005b610092600480360381019061008d9190610d9a565b610174565b005b6100ae60048036038101906100a99190610d9a565b61041d565b005b6100b8610860565b6040516100c59190610ecf565b60405180910390f35b6100e860048036038101906100e39190610d9a565b610968565b6040516100f59190611032565b60405180910390f35b600160008373ffffffffffffffffffffffffffffffffffffffff1673ffffffffffffffffffffffffffffffffffffffff1681526020019081526020016000208190806001815401808255809150506001900390600052602060002001600090919091909150908161016f919061126a565b505050565b6000600260003373ffffffffffffffffffffffffffffffffffffffff1673ffffffffffffffffffffffffffffffffffffffff16815260200190815260200160002060008373ffffffffffffffffffffffffffffffffffffffff1673ffffffffffffffffffffffffffffffffffffffff16815260200190815260200160002060006101000a81548160ff021916908315150217905550600360003373ffffffffffffffffffffffffffffffffffffffff1673ffffffffffffffffffffffffffffffffffffffff16815260200190815260200160002060008273ffffffffffffffffffffffffffffffffffffffff1673ffffffffffffffffffffffffffffffffffffffff16815260200190815260200160002060009054906101000a900460ff161561041a5760005b6000803373ffffffffffffffffffffffffffffffffffffffff1673ffffffffffffffffffffffffffffffffffffffff16815260200190815260200160002080549050811015610418578173ffffffffffffffffffffffffffffffffffffffff166000803373ffffffffffffffffffffffffffffffffffffffff1673ffffffffffffffffffffffffffffffffffffffff168152602001908152602001600020828154811061034b5761034a61133c565b5b9060005260206000200160000160009054906101000a900473ffffffffffffffffffffffffffffffffffffffff1673ffffffffffffffffffffffffffffffffffffffff160361040b5760008060003373ffffffffffffffffffffffffffffffffffffffff1673ffffffffffffffffffffffffffffffffffffffff16815260200190815260200160002082815481106103e6576103e561133c565b5b9060005260206000200160000160146101000a81548160ff0219169083151502179055505b808060010191505061029b565b505b50565b6001600260003373ffffffffffffffffffffffffffffffffffffffff1673ffffffffffffffffffffffffffffffffffffffff16815260200190815260200160002060008373ffffffffffffffffffffffffffffffffffffffff1673ffffffffffffffffffffffffffffffffffffffff16815260200190815260200160002060006101000a81548160ff02191690831515021790555060001515600360003373ffffffffffffffffffffffffffffffffffffffff1673ffffffffffffffffffffffffffffffffffffffff16815260200190815260200160002060008373ffffffffffffffffffffffffffffffffffffffff1673ffffffffffffffffffffffffffffffffffffffff16815260200190815260200160002060009054906101000a900460ff161515036106db576000803373ffffffffffffffffffffffffffffffffffffffff1673ffffffffffffffffffffffffffffffffffffffff16815260200190815260200160002060405180604001604052808373ffffffffffffffffffffffffffffffffffffffff168152602001600115158152509080600181540180825580915050600190039060005260206000200160009091909190915060008201518160000160006101000a81548173ffffffffffffffffffffffffffffffffffffffff021916908373ffffffffffffffffffffffffffffffffffffffff16021790555060208201518160000160146101000a81548160ff02191690831515021790555050506001600360003373ffffffffffffffffffffffffffffffffffffffff1673ffffffffffffffffffffffffffffffffffffffff16815260200190815260200160002060008373ffffffffffffffffffffffffffffffffffffffff1673ffffffffffffffffffffffffffffffffffffffff16815260200190815260200160002060006101000a81548160ff02191690831515021790555061085d565b60005b6000803373ffffffffffffffffffffffffffffffffffffffff1673ffffffffffffffffffffffffffffffffffffffff1681526020019081526020016000208054905081101561085b578173ffffffffffffffffffffffffffffffffffffffff166000803373ffffffffffffffffffffffffffffffffffffffff1673ffffffffffffffffffffffffffffffffffffffff168152602001908152602001600020828154811061078e5761078d61133c565b5b9060005260206000200160000160009054906101000a900473ffffffffffffffffffffffffffffffffffffffff1673ffffffffffffffffffffffffffffffffffffffff160361084e5760016000803373ffffffffffffffffffffffffffffffffffffffff1673ffffffffffffffffffffffffffffffffffffffff16815260200190815260200160002082815481106108295761082861133c565b5b9060005260206000200160000160146101000a81548160ff0219169083151502179055505b80806001019150506106de565b505b50565b60606000803373ffffffffffffffffffffffffffffffffffffffff1673ffffffffffffffffffffffffffffffffffffffff168152602001908152602001600020805480602002602001604051908101604052809291908181526020016000905b8282101561095f578382906000526020600020016040518060400160405290816000820160009054906101000a900473ffffffffffffffffffffffffffffffffffffffff1673ffffffffffffffffffffffffffffffffffffffff1673ffffffffffffffffffffffffffffffffffffffff1681526020016000820160149054906101000a900460ff161515151581525050815260200190600101906108c0565b50505050905090565b60603373ffffffffffffffffffffffffffffffffffffffff168273ffffffffffffffffffffffffffffffffffffffff161480610a31575060011515600260008473ffffffffffffffffffffffffffffffffffffffff1673ffffffffffffffffffffffffffffffffffffffff16815260200190815260200160002060003373ffffffffffffffffffffffffffffffffffffffff1673ffffffffffffffffffffffffffffffffffffffff16815260200190815260200160002060009054906101000a900460ff161515145b610a70576040517f08c379a0000000000000000000000000000000000000000000000000000000008152600401610a67906113c8565b60405180910390fd5b600160008373ffffffffffffffffffffffffffffffffffffffff1673ffffffffffffffffffffffffffffffffffffffff168152602001908152602001600020805480602002602001604051908101604052809291908181526020016000905b82821015610b7b578382906000526020600020018054610aee90611083565b80601f0160208091040260200160405190810160405280929190818152602001828054610b1a90611083565b8015610b675780601f10610b3c57610100808354040283529160200191610b67565b820191906000526020600020905b815481529060010190602001808311610b4a57829003601f168201915b505050505081526020019060010190610acf565b505050509050919050565b6000604051905090565b600080fd5b600080fd5b600073ffffffffffffffffffffffffffffffffffffffff82169050919050565b6000610bc582610b9a565b9050919050565b610bd581610bba565b8114610be057600080fd5b50565b600081359050610bf281610bcc565b92915050565b600080fd5b600080fd5b6000601f19601f8301169050919050565b7f4e487b7100000000000000000000000000000000000000000000000000000000600052604160045260246000fd5b610c4b82610c02565b810181811067ffffffffffffffff82111715610c6a57610c69610c13565b5b80604052505050565b6000610c7d610b86565b9050610c898282610c42565b919050565b600067ffffffffffffffff821115610ca957610ca8610c13565b5b610cb282610c02565b9050602081019050919050565b82818337600083830152505050565b6000610ce1610cdc84610c8e565b610c73565b905082815260208101848484011115610cfd57610cfc610bfd565b5b610d08848285610cbf565b509392505050565b600082601f830112610d2557610d24610bf8565b5b8135610d35848260208601610cce565b91505092915050565b60008060408385031215610d5557610d54610b90565b5b6000610d6385828601610be3565b925050602083013567ffffffffffffffff811115610d8457610d83610b95565b5b610d9085828601610d10565b9150509250929050565b600060208284031215610db057610daf610b90565b5b6000610dbe84828501610be3565b91505092915050565b600081519050919050565b600082825260208201905092915050565b6000819050602082019050919050565b610dfc81610bba565b82525050565b60008115159050919050565b610e1781610e02565b82525050565b604082016000820151610e336000850182610df3565b506020820151610e466020850182610e0e565b50505050565b6000610e588383610e1d565b60408301905092915050565b6000602082019050919050565b6000610e7c82610dc7565b610e868185610dd2565b9350610e9183610de3565b8060005b83811015610ec2578151610ea98882610e4c565b9750610eb483610e64565b925050600181019050610e95565b5085935050505092915050565b60006020820190508181036000830152610ee98184610e71565b905092915050565b600081519050919050565b600082825260208201905092915050565b6000819050602082019050919050565b600081519050919050565b600082825260208201905092915050565b60005b83811015610f57578082015181840152602081019050610f3c565b60008484015250505050565b6000610f6e82610f1d565b610f788185610f28565b9350610f88818560208601610f39565b610f9181610c02565b840191505092915050565b6000610fa88383610f63565b905092915050565b6000602082019050919050565b6000610fc882610ef1565b610fd28185610efc565b935083602082028501610fe485610f0d565b8060005b8581101561102057848403895281516110018582610f9c565b945061100c83610fb0565b925060208a01995050600181019050610fe8565b50829750879550505050505092915050565b6000602082019050818103600083015261104c8184610fbd565b905092915050565b7f4e487b7100000000000000000000000000000000000000000000000000000000600052602260045260246000fd5b6000600282049050600182168061109b57607f821691505b6020821081036110ae576110ad611054565b5b50919050565b60008190508160005260206000209050919050565b60006020601f8301049050919050565b600082821b905092915050565b6000600883026111167fffffffffffffffffffffffffffffffffffffffffffffffffffffffffffffffff826110d9565b61112086836110d9565b95508019841693508086168417925050509392505050565b6000819050919050565b6000819050919050565b600061116761116261115d84611138565b611142565b611138565b9050919050565b6000819050919050565b6111818361114c565b61119561118d8261116e565b8484546110e6565b825550505050565b600090565b6111aa61119d565b6111b5818484611178565b505050565b5b818110156111d9576111ce6000826111a2565b6001810190506111bb565b5050565b601f82111561121e576111ef816110b4565b6111f8846110c9565b81016020851015611207578190505b61121b611213856110c9565b8301826111ba565b50505b505050565b600082821c905092915050565b600061124160001984600802611223565b1980831691505092915050565b600061125a8383611230565b9150826002028217905092915050565b61127382610f1d565b67ffffffffffffffff81111561128c5761128b610c13565b5b6112968254611083565b6112a18282856111dd565b600060209050601f8311600181146112d457600084156112c2578287015190505b6112cc858261124e565b865550611334565b601f1984166112e2866110b4565b60005b8281101561130a578489015182556001820191506020850194506020810190506112e5565b868310156113275784890151611323601f891682611230565b8355505b6001600288020188555050505b505050505050565b7f4e487b7100000000000000000000000000000000000000000000000000000000600052603260045260246000fd5b600082825260208201905092915050565b7f596f7520646f6e27742068617665206163636573730000000000000000000000600082015250565b60006113b260158361136b565b91506113bd8261137c565b602082019050919050565b600060208201905081810360008301526113e1816113a5565b905091905056fea2646970667358221220199bfc44cef0ea4a8731daaa2ba3a0646a18848b404cd97deea515e44ccef53a64736f6c63430008180033",
  "linkReferences": {},
  "deployedLinkReferences": {}
}