{
  "_format": "hh-sol-artifact-1",
  "contractName": "Upload",
  "sourceName": "contracts/Upload.sol",
  "abi": [
    {
      "inputs": [
        {
          "internalType": "address",
          "name": "_user",
          "type": "address"
        },
        {
          "internalType": "string",
          "name": "url",
          "type": "string"
        }
      ],
      "name": "add",
      "outputs": [],
      "stateMutability": "nonpayable",
      "type": "function"
    },
    {
      "inputs": [
        {
          "internalType": "address",
          "name": "_user",
          "type": "address"
        }
      ],
      "name": "allow",
      "outputs": [],
      "stateMutability": "nonpayable",
      "type": "function"
    },
    {
      "inputs": [
        {
          "internalType": "address",
          "name": "_user",
          "type": "address"
        }
      ],
      "name": "disallow",
      "outputs": [],
      "stateMutability": "nonpayable",
      "type": "function"
    },
    {
      "inputs": [
        {
          "internalType": "address",
          "name": "_user",
          "type": "address"
        }
      ],
      "name": "display",
      "outputs": [
        {
          "internalType": "string[]",
          "name": "",
          "type": "string[]"
        }
      ],
      "stateMutability": "view",
      "type": "function"
    },
    {
      "inputs": [],
      "name": "shareAccessList",
      "outputs": [
        {
          "components": [
            {
              "internalType": "address",
              "name": "user",
              "type": "address"
            },
            {
              "internalType": "bool",
              "name": "access",
              "type": "bool"
            }
          ],
          "internalType": "struct Upload.Access[]",
          "name": "",
          "type": "tuple[]"
        }
      ],
      "stateMutability": "view",
      "type": "function"
    }
  ],
  "bytecode": "0x608060405234801561001057600080fd5b5061149d806100206000396000f3fe608060405234801561001057600080fd5b50600436106100575760003560e01c806336d6da551461005c578063a9ed9cb814610078578063e07554d214610094578063eb39113f146100b2578063ff9913e8146100e2575b600080fd5b61007660048036038101906100719190610dbd565b6100fe565b005b610092600480360381019061008d9190610e19565b610174565b005b61009c61041d565b6040516100a99190610f4e565b60405180910390f35b6100cc60048036038101906100c79190610e19565b610525565b6040516100d991906110b1565b60405180910390f35b6100fc60048036038101906100f79190610e19565b610743565b005b600160008373ffffffffffffffffffffffffffffffffffffffff1673ffffffffffffffffffffffffffffffffffffffff1681526020019081526020016000208190806001815401808255809150506001900390600052602060002001600090919091909150908161016f91906112e9565b505050565b6000600260003373ffffffffffffffffffffffffffffffffffffffff1673ffffffffffffffffffffffffffffffffffffffff16815260200190815260200160002060008373ffffffffffffffffffffffffffffffffffffffff1673ffffffffffffffffffffffffffffffffffffffff16815260200190815260200160002060006101000a81548160ff021916908315150217905550600360003373ffffffffffffffffffffffffffffffffffffffff1673ffffffffffffffffffffffffffffffffffffffff16815260200190815260200160002060008273ffffffffffffffffffffffffffffffffffffffff1673ffffffffffffffffffffffffffffffffffffffff16815260200190815260200160002060009054906101000a900460ff161561041a5760005b6000803373ffffffffffffffffffffffffffffffffffffffff1673ffffffffffffffffffffffffffffffffffffffff16815260200190815260200160002080549050811015610418578173ffffffffffffffffffffffffffffffffffffffff166000803373ffffffffffffffffffffffffffffffffffffffff1673ffffffffffffffffffffffffffffffffffffffff168152602001908152602001600020828154811061034b5761034a6113bb565b5b9060005260206000200160000160009054906101000a900473ffffffffffffffffffffffffffffffffffffffff1673ffffffffffffffffffffffffffffffffffffffff160361040b5760008060003373ffffffffffffffffffffffffffffffffffffffff1673ffffffffffffffffffffffffffffffffffffffff16815260200190815260200160002082815481106103e6576103e56113bb565b5b9060005260206000200160000160146101000a81548160ff0219169083151502179055505b808060010191505061029b565b505b50565b60606000803373ffffffffffffffffffffffffffffffffffffffff1673ffffffffffffffffffffffffffffffffffffffff168152602001908152602001600020805480602002602001604051908101604052809291908181526020016000905b8282101561051c578382906000526020600020016040518060400160405290816000820160009054906101000a900473ffffffffffffffffffffffffffffffffffffffff1673ffffffffffffffffffffffffffffffffffffffff1673ffffffffffffffffffffffffffffffffffffffff1681526020016000820160149054906101000a900460ff1615151515815250508152602001906001019061047d565b50505050905090565b60603373ffffffffffffffffffffffffffffffffffffffff168273ffffffffffffffffffffffffffffffffffffffff1614806105ee575060011515600260003373ffffffffffffffffffffffffffffffffffffffff1673ffffffffffffffffffffffffffffffffffffffff16815260200190815260200160002060008473ffffffffffffffffffffffffffffffffffffffff1673ffffffffffffffffffffffffffffffffffffffff16815260200190815260200160002060009054906101000a900460ff161515145b61062d576040517f08c379a000000000000000000000000000000000000000000000000000000000815260040161062490611447565b60405180910390fd5b600160008373ffffffffffffffffffffffffffffffffffffffff1673ffffffffffffffffffffffffffffffffffffffff168152602001908152602001600020805480602002602001604051908101604052809291908181526020016000905b828210156107385783829060005260206000200180546106ab90611102565b80601f01602080910402602001604051908101604052809291908181526020018280546106d790611102565b80156107245780601f106106f957610100808354040283529160200191610724565b820191906000526020600020905b81548152906001019060200180831161070757829003601f168201915b50505050508152602001906001019061068c565b505050509050919050565b6001600260003373ffffffffffffffffffffffffffffffffffffffff1673ffffffffffffffffffffffffffffffffffffffff16815260200190815260200160002060008373ffffffffffffffffffffffffffffffffffffffff1673ffffffffffffffffffffffffffffffffffffffff16815260200190815260200160002060006101000a81548160ff0219169083151502179055506000600360003373ffffffffffffffffffffffffffffffffffffffff1673ffffffffffffffffffffffffffffffffffffffff16815260200190815260200160002060008373ffffffffffffffffffffffffffffffffffffffff1673ffffffffffffffffffffffffffffffffffffffff16815260200190815260200160002060006101000a81548160ff021916908315150217905515610a05576000803373ffffffffffffffffffffffffffffffffffffffff1673ffffffffffffffffffffffffffffffffffffffff16815260200190815260200160002060405180604001604052808373ffffffffffffffffffffffffffffffffffffffff168152602001600115158152509080600181540180825580915050600190039060005260206000200160009091909190915060008201518160000160006101000a81548173ffffffffffffffffffffffffffffffffffffffff021916908373ffffffffffffffffffffffffffffffffffffffff16021790555060208201518160000160146101000a81548160ff02191690831515021790555050506001600360003373ffffffffffffffffffffffffffffffffffffffff1673ffffffffffffffffffffffffffffffffffffffff16815260200190815260200160002060008373ffffffffffffffffffffffffffffffffffffffff1673ffffffffffffffffffffffffffffffffffffffff16815260200190815260200160002060006101000a81548160ff021916908315150217905550610c02565b60005b6000803373ffffffffffffffffffffffffffffffffffffffff1673ffffffffffffffffffffffffffffffffffffffff16815260200190815260200160002080549050811015610c00578173ffffffffffffffffffffffffffffffffffffffff166000803373ffffffffffffffffffffffffffffffffffffffff1673ffffffffffffffffffffffffffffffffffffffff1681526020019081526020016000208281548110610ab857610ab76113bb565b5b9060005260206000200160000160009054906101000a900473ffffffffffffffffffffffffffffffffffffffff1673ffffffffffffffffffffffffffffffffffffffff1603610bf35760008060003373ffffffffffffffffffffffffffffffffffffffff1673ffffffffffffffffffffffffffffffffffffffff1681526020019081526020016000208281548110610b5357610b526113bb565b5b9060005260206000200160000160146101000a81548160ff021916908315150217905515610bf25760016000803373ffffffffffffffffffffffffffffffffffffffff1673ffffffffffffffffffffffffffffffffffffffff1681526020019081526020016000208281548110610bcd57610bcc6113bb565b5b9060005260206000200160000160146101000a81548160ff0219169083151502179055505b5b8080600101915050610a08565b505b50565b6000604051905090565b600080fd5b600080fd5b600073ffffffffffffffffffffffffffffffffffffffff82169050919050565b6000610c4482610c19565b9050919050565b610c5481610c39565b8114610c5f57600080fd5b50565b600081359050610c7181610c4b565b92915050565b600080fd5b600080fd5b6000601f19601f8301169050919050565b7f4e487b7100000000000000000000000000000000000000000000000000000000600052604160045260246000fd5b610cca82610c81565b810181811067ffffffffffffffff82111715610ce957610ce8610c92565b5b80604052505050565b6000610cfc610c05565b9050610d088282610cc1565b919050565b600067ffffffffffffffff821115610d2857610d27610c92565b5b610d3182610c81565b9050602081019050919050565b82818337600083830152505050565b6000610d60610d5b84610d0d565b610cf2565b905082815260208101848484011115610d7c57610d7b610c7c565b5b610d87848285610d3e565b509392505050565b600082601f830112610da457610da3610c77565b5b8135610db4848260208601610d4d565b91505092915050565b60008060408385031215610dd457610dd3610c0f565b5b6000610de285828601610c62565b925050602083013567ffffffffffffffff811115610e0357610e02610c14565b5b610e0f85828601610d8f565b9150509250929050565b600060208284031215610e2f57610e2e610c0f565b5b6000610e3d84828501610c62565b91505092915050565b600081519050919050565b600082825260208201905092915050565b6000819050602082019050919050565b610e7b81610c39565b82525050565b60008115159050919050565b610e9681610e81565b82525050565b604082016000820151610eb26000850182610e72565b506020820151610ec56020850182610e8d565b50505050565b6000610ed78383610e9c565b60408301905092915050565b6000602082019050919050565b6000610efb82610e46565b610f058185610e51565b9350610f1083610e62565b8060005b83811015610f41578151610f288882610ecb565b9750610f3383610ee3565b925050600181019050610f14565b5085935050505092915050565b60006020820190508181036000830152610f688184610ef0565b905092915050565b600081519050919050565b600082825260208201905092915050565b6000819050602082019050919050565b600081519050919050565b600082825260208201905092915050565b60005b83811015610fd6578082015181840152602081019050610fbb565b60008484015250505050565b6000610fed82610f9c565b610ff78185610fa7565b9350611007818560208601610fb8565b61101081610c81565b840191505092915050565b60006110278383610fe2565b905092915050565b6000602082019050919050565b600061104782610f70565b6110518185610f7b565b93508360208202850161106385610f8c565b8060005b8581101561109f5784840389528151611080858261101b565b945061108b8361102f565b925060208a01995050600181019050611067565b50829750879550505050505092915050565b600060208201905081810360008301526110cb818461103c565b905092915050565b7f4e487b7100000000000000000000000000000000000000000000000000000000600052602260045260246000fd5b6000600282049050600182168061111a57607f821691505b60208210810361112d5761112c6110d3565b5b50919050565b60008190508160005260206000209050919050565b60006020601f8301049050919050565b600082821b905092915050565b6000600883026111957fffffffffffffffffffffffffffffffffffffffffffffffffffffffffffffffff82611158565b61119f8683611158565b95508019841693508086168417925050509392505050565b6000819050919050565b6000819050919050565b60006111e66111e16111dc846111b7565b6111c1565b6111b7565b9050919050565b6000819050919050565b611200836111cb565b61121461120c826111ed565b848454611165565b825550505050565b600090565b61122961121c565b6112348184846111f7565b505050565b5b818110156112585761124d600082611221565b60018101905061123a565b5050565b601f82111561129d5761126e81611133565b61127784611148565b81016020851015611286578190505b61129a61129285611148565b830182611239565b50505b505050565b600082821c905092915050565b60006112c0600019846008026112a2565b1980831691505092915050565b60006112d983836112af565b9150826002028217905092915050565b6112f282610f9c565b67ffffffffffffffff81111561130b5761130a610c92565b5b6113158254611102565b61132082828561125c565b600060209050601f8311600181146113535760008415611341578287015190505b61134b85826112cd565b8655506113b3565b601f19841661136186611133565b60005b8281101561138957848901518255600182019150602085019450602081019050611364565b868310156113a657848901516113a2601f8916826112af565b8355505b6001600288020188555050505b505050505050565b7f4e487b7100000000000000000000000000000000000000000000000000000000600052603260045260246000fd5b600082825260208201905092915050565b7f596f7520646f6e27742068617665206163636573730000000000000000000000600082015250565b60006114316015836113ea565b915061143c826113fb565b602082019050919050565b6000602082019050818103600083015261146081611424565b905091905056fea2646970667358221220e151f4d81b04b9b5105739d9dae4bc0092c601ef345d46d3fbc496e45d5a7ed464736f6c63430008180033",
  "linkReferences": {},
  "deployedLinkReferences": {}
}