{
  "_format": "hh-sol-artifact-1",
  "contractName": "Upload",
  "sourceName": "contracts/Upload.sol",
  "abi": [
    {
      "inputs": [
        {
          "internalType": "address",
          "name": "_user",
          "type": "address"
        },
        {
          "components": [
            {
              "internalType": "string",
              "name": "fileName",
              "type": "string"
            },
            {
              "internalType": "string",
              "name": "hash",
              "type": "string"
            },
            {
              "internalType": "string",
              "name": "fileType",
              "type": "string"
            },
            {
              "internalType": "string",
              "name": "uploadDate",
              "type": "string"
            }
          ],
          "internalType": "struct Upload.File",
          "name": "file",
          "type": "tuple"
        }
      ],
      "name": "add",
      "outputs": [],
      "stateMutability": "nonpayable",
      "type": "function"
    },
    {
      "inputs": [
        {
          "internalType": "address",
          "name": "_user",
          "type": "address"
        }
      ],
      "name": "disallow",
      "outputs": [],
      "stateMutability": "nonpayable",
      "type": "function"
    },
    {
      "inputs": [
        {
          "internalType": "address",
          "name": "_user",
          "type": "address"
        }
      ],
      "name": "display",
      "outputs": [
        {
          "components": [
            {
              "internalType": "string",
              "name": "fileName",
              "type": "string"
            },
            {
              "internalType": "string",
              "name": "hash",
              "type": "string"
            },
            {
              "internalType": "string",
              "name": "fileType",
              "type": "string"
            },
            {
              "internalType": "string",
              "name": "uploadDate",
              "type": "string"
            }
          ],
          "internalType": "struct Upload.File[]",
          "name": "",
          "type": "tuple[]"
        }
      ],
      "stateMutability": "view",
      "type": "function"
    },
    {
      "inputs": [
        {
          "internalType": "address",
          "name": "_user",
          "type": "address"
        }
      ],
      "name": "shareAccess",
      "outputs": [],
      "stateMutability": "nonpayable",
      "type": "function"
    },
    {
      "inputs": [],
      "name": "shareAccessList",
      "outputs": [
        {
          "components": [
            {
              "internalType": "address",
              "name": "user",
              "type": "address"
            },
            {
              "internalType": "bool",
              "name": "access",
              "type": "bool"
            }
          ],
          "internalType": "struct Upload.Access[]",
          "name": "",
          "type": "tuple[]"
        }
      ],
      "stateMutability": "view",
      "type": "function"
    }
  ],
  "bytecode": "0x608060405234801561001057600080fd5b506117a7806100206000396000f3fe608060405234801561001057600080fd5b50600436106100575760003560e01c8063a9ed9cb81461005c578063d4f3753014610078578063e07554d214610094578063e6918916146100b2578063eb39113f146100ce575b600080fd5b61007660048036038101906100719190610e17565b6100fe565b005b610092600480360381019061008d9190610e17565b6103a7565b005b61009c6107ea565b6040516100a99190610f4c565b60405180910390f35b6100cc60048036038101906100c791906111a6565b6108f2565b005b6100e860048036038101906100e39190610e17565b6109b9565b6040516100f591906113bb565b60405180910390f35b6000600260003373ffffffffffffffffffffffffffffffffffffffff1673ffffffffffffffffffffffffffffffffffffffff16815260200190815260200160002060008373ffffffffffffffffffffffffffffffffffffffff1673ffffffffffffffffffffffffffffffffffffffff16815260200190815260200160002060006101000a81548160ff021916908315150217905550600360003373ffffffffffffffffffffffffffffffffffffffff1673ffffffffffffffffffffffffffffffffffffffff16815260200190815260200160002060008273ffffffffffffffffffffffffffffffffffffffff1673ffffffffffffffffffffffffffffffffffffffff16815260200190815260200160002060009054906101000a900460ff16156103a45760005b6000803373ffffffffffffffffffffffffffffffffffffffff1673ffffffffffffffffffffffffffffffffffffffff168152602001908152602001600020805490508110156103a2578173ffffffffffffffffffffffffffffffffffffffff166000803373ffffffffffffffffffffffffffffffffffffffff1673ffffffffffffffffffffffffffffffffffffffff16815260200190815260200160002082815481106102d5576102d46113dd565b5b9060005260206000200160000160009054906101000a900473ffffffffffffffffffffffffffffffffffffffff1673ffffffffffffffffffffffffffffffffffffffff16036103955760008060003373ffffffffffffffffffffffffffffffffffffffff1673ffffffffffffffffffffffffffffffffffffffff16815260200190815260200160002082815481106103705761036f6113dd565b5b9060005260206000200160000160146101000a81548160ff0219169083151502179055505b8080600101915050610225565b505b50565b6001600260003373ffffffffffffffffffffffffffffffffffffffff1673ffffffffffffffffffffffffffffffffffffffff16815260200190815260200160002060008373ffffffffffffffffffffffffffffffffffffffff1673ffffffffffffffffffffffffffffffffffffffff16815260200190815260200160002060006101000a81548160ff02191690831515021790555060001515600360003373ffffffffffffffffffffffffffffffffffffffff1673ffffffffffffffffffffffffffffffffffffffff16815260200190815260200160002060008373ffffffffffffffffffffffffffffffffffffffff1673ffffffffffffffffffffffffffffffffffffffff16815260200190815260200160002060009054906101000a900460ff16151503610665576000803373ffffffffffffffffffffffffffffffffffffffff1673ffffffffffffffffffffffffffffffffffffffff16815260200190815260200160002060405180604001604052808373ffffffffffffffffffffffffffffffffffffffff168152602001600115158152509080600181540180825580915050600190039060005260206000200160009091909190915060008201518160000160006101000a81548173ffffffffffffffffffffffffffffffffffffffff021916908373ffffffffffffffffffffffffffffffffffffffff16021790555060208201518160000160146101000a81548160ff02191690831515021790555050506001600360003373ffffffffffffffffffffffffffffffffffffffff1673ffffffffffffffffffffffffffffffffffffffff16815260200190815260200160002060008373ffffffffffffffffffffffffffffffffffffffff1673ffffffffffffffffffffffffffffffffffffffff16815260200190815260200160002060006101000a81548160ff0219169083151502179055506107e7565b60005b6000803373ffffffffffffffffffffffffffffffffffffffff1673ffffffffffffffffffffffffffffffffffffffff168152602001908152602001600020805490508110156107e5578173ffffffffffffffffffffffffffffffffffffffff166000803373ffffffffffffffffffffffffffffffffffffffff1673ffffffffffffffffffffffffffffffffffffffff1681526020019081526020016000208281548110610718576107176113dd565b5b9060005260206000200160000160009054906101000a900473ffffffffffffffffffffffffffffffffffffffff1673ffffffffffffffffffffffffffffffffffffffff16036107d85760016000803373ffffffffffffffffffffffffffffffffffffffff1673ffffffffffffffffffffffffffffffffffffffff16815260200190815260200160002082815481106107b3576107b26113dd565b5b9060005260206000200160000160146101000a81548160ff0219169083151502179055505b8080600101915050610668565b505b50565b60606000803373ffffffffffffffffffffffffffffffffffffffff1673ffffffffffffffffffffffffffffffffffffffff168152602001908152602001600020805480602002602001604051908101604052809291908181526020016000905b828210156108e9578382906000526020600020016040518060400160405290816000820160009054906101000a900473ffffffffffffffffffffffffffffffffffffffff1673ffffffffffffffffffffffffffffffffffffffff1673ffffffffffffffffffffffffffffffffffffffff1681526020016000820160149054906101000a900460ff1615151515815250508152602001906001019061084a565b50505050905090565b600160008373ffffffffffffffffffffffffffffffffffffffff1673ffffffffffffffffffffffffffffffffffffffff16815260200190815260200160002081908060018154018082558091505060019003906000526020600020906004020160009091909190915060008201518160000190816109709190611622565b5060208201518160010190816109869190611622565b50604082015181600201908161099c9190611622565b5060608201518160030190816109b29190611622565b5050505050565b60603373ffffffffffffffffffffffffffffffffffffffff168273ffffffffffffffffffffffffffffffffffffffff161480610a82575060011515600260008473ffffffffffffffffffffffffffffffffffffffff1673ffffffffffffffffffffffffffffffffffffffff16815260200190815260200160002060003373ffffffffffffffffffffffffffffffffffffffff1673ffffffffffffffffffffffffffffffffffffffff16815260200190815260200160002060009054906101000a900460ff161515145b610ac1576040517f08c379a0000000000000000000000000000000000000000000000000000000008152600401610ab890611751565b60405180910390fd5b600160008373ffffffffffffffffffffffffffffffffffffffff1673ffffffffffffffffffffffffffffffffffffffff168152602001908152602001600020805480602002602001604051908101604052809291908181526020016000905b82821015610d9a5783829060005260206000209060040201604051806080016040529081600082018054610b539061143b565b80601f0160208091040260200160405190810160405280929190818152602001828054610b7f9061143b565b8015610bcc5780601f10610ba157610100808354040283529160200191610bcc565b820191906000526020600020905b815481529060010190602001808311610baf57829003601f168201915b50505050508152602001600182018054610be59061143b565b80601f0160208091040260200160405190810160405280929190818152602001828054610c119061143b565b8015610c5e5780601f10610c3357610100808354040283529160200191610c5e565b820191906000526020600020905b815481529060010190602001808311610c4157829003601f168201915b50505050508152602001600282018054610c779061143b565b80601f0160208091040260200160405190810160405280929190818152602001828054610ca39061143b565b8015610cf05780601f10610cc557610100808354040283529160200191610cf0565b820191906000526020600020905b815481529060010190602001808311610cd357829003601f168201915b50505050508152602001600382018054610d099061143b565b80601f0160208091040260200160405190810160405280929190818152602001828054610d359061143b565b8015610d825780601f10610d5757610100808354040283529160200191610d82565b820191906000526020600020905b815481529060010190602001808311610d6557829003601f168201915b50505050508152505081526020019060010190610b20565b505050509050919050565b6000604051905090565b600080fd5b600080fd5b600073ffffffffffffffffffffffffffffffffffffffff82169050919050565b6000610de482610db9565b9050919050565b610df481610dd9565b8114610dff57600080fd5b50565b600081359050610e1181610deb565b92915050565b600060208284031215610e2d57610e2c610daf565b5b6000610e3b84828501610e02565b91505092915050565b600081519050919050565b600082825260208201905092915050565b6000819050602082019050919050565b610e7981610dd9565b82525050565b60008115159050919050565b610e9481610e7f565b82525050565b604082016000820151610eb06000850182610e70565b506020820151610ec36020850182610e8b565b50505050565b6000610ed58383610e9a565b60408301905092915050565b6000602082019050919050565b6000610ef982610e44565b610f038185610e4f565b9350610f0e83610e60565b8060005b83811015610f3f578151610f268882610ec9565b9750610f3183610ee1565b925050600181019050610f12565b5085935050505092915050565b60006020820190508181036000830152610f668184610eee565b905092915050565b600080fd5b6000601f19601f8301169050919050565b7f4e487b7100000000000000000000000000000000000000000000000000000000600052604160045260246000fd5b610fbc82610f73565b810181811067ffffffffffffffff82111715610fdb57610fda610f84565b5b80604052505050565b6000610fee610da5565b9050610ffa8282610fb3565b919050565b600080fd5b600080fd5b600080fd5b600067ffffffffffffffff82111561102957611028610f84565b5b61103282610f73565b9050602081019050919050565b82818337600083830152505050565b600061106161105c8461100e565b610fe4565b90508281526020810184848401111561107d5761107c611009565b5b61108884828561103f565b509392505050565b600082601f8301126110a5576110a4611004565b5b81356110b584826020860161104e565b91505092915050565b6000608082840312156110d4576110d3610f6e565b5b6110de6080610fe4565b9050600082013567ffffffffffffffff8111156110fe576110fd610fff565b5b61110a84828501611090565b600083015250602082013567ffffffffffffffff81111561112e5761112d610fff565b5b61113a84828501611090565b602083015250604082013567ffffffffffffffff81111561115e5761115d610fff565b5b61116a84828501611090565b604083015250606082013567ffffffffffffffff81111561118e5761118d610fff565b5b61119a84828501611090565b60608301525092915050565b600080604083850312156111bd576111bc610daf565b5b60006111cb85828601610e02565b925050602083013567ffffffffffffffff8111156111ec576111eb610db4565b5b6111f8858286016110be565b9150509250929050565b600081519050919050565b600082825260208201905092915050565b6000819050602082019050919050565b600081519050919050565b600082825260208201905092915050565b60005b8381101561126857808201518184015260208101905061124d565b60008484015250505050565b600061127f8261122e565b6112898185611239565b935061129981856020860161124a565b6112a281610f73565b840191505092915050565b600060808301600083015184820360008601526112ca8282611274565b915050602083015184820360208601526112e48282611274565b915050604083015184820360408601526112fe8282611274565b915050606083015184820360608601526113188282611274565b9150508091505092915050565b600061133183836112ad565b905092915050565b6000602082019050919050565b600061135182611202565b61135b818561120d565b93508360208202850161136d8561121e565b8060005b858110156113a9578484038952815161138a8582611325565b945061139583611339565b925060208a01995050600181019050611371565b50829750879550505050505092915050565b600060208201905081810360008301526113d58184611346565b905092915050565b7f4e487b7100000000000000000000000000000000000000000000000000000000600052603260045260246000fd5b7f4e487b7100000000000000000000000000000000000000000000000000000000600052602260045260246000fd5b6000600282049050600182168061145357607f821691505b6020821081036114665761146561140c565b5b50919050565b60008190508160005260206000209050919050565b60006020601f8301049050919050565b600082821b905092915050565b6000600883026114ce7fffffffffffffffffffffffffffffffffffffffffffffffffffffffffffffffff82611491565b6114d88683611491565b95508019841693508086168417925050509392505050565b6000819050919050565b6000819050919050565b600061151f61151a611515846114f0565b6114fa565b6114f0565b9050919050565b6000819050919050565b61153983611504565b61154d61154582611526565b84845461149e565b825550505050565b600090565b611562611555565b61156d818484611530565b505050565b5b818110156115915761158660008261155a565b600181019050611573565b5050565b601f8211156115d6576115a78161146c565b6115b084611481565b810160208510156115bf578190505b6115d36115cb85611481565b830182611572565b50505b505050565b600082821c905092915050565b60006115f9600019846008026115db565b1980831691505092915050565b600061161283836115e8565b9150826002028217905092915050565b61162b8261122e565b67ffffffffffffffff81111561164457611643610f84565b5b61164e825461143b565b611659828285611595565b600060209050601f83116001811461168c576000841561167a578287015190505b6116848582611606565b8655506116ec565b601f19841661169a8661146c565b60005b828110156116c25784890151825560018201915060208501945060208101905061169d565b868310156116df57848901516116db601f8916826115e8565b8355505b6001600288020188555050505b505050505050565b600082825260208201905092915050565b7f596f7520646f6e27742068617665206163636573730000000000000000000000600082015250565b600061173b6015836116f4565b915061174682611705565b602082019050919050565b6000602082019050818103600083015261176a8161172e565b905091905056fea2646970667358221220474b8922f65471803c93aa7b8b84e9c1b28ae1b77fc0e34dbfdbe0c48dc36a3464736f6c63430008180033",
  "linkReferences": {},
  "deployedLinkReferences": {}
}