{
  "_format": "hh-sol-artifact-1",
  "contractName": "Upload",
  "sourceName": "contracts/Upload.sol",
  "abi": [
    {
      "inputs": [
        {
          "internalType": "address",
          "name": "_user",
          "type": "address"
        },
        {
          "components": [
            {
              "internalType": "string",
              "name": "fileName",
              "type": "string"
            },
            {
              "internalType": "string",
              "name": "hash",
              "type": "string"
            },
            {
              "internalType": "string",
              "name": "fileType",
              "type": "string"
            },
            {
              "internalType": "string",
              "name": "uploadDate",
              "type": "string"
            }
          ],
          "internalType": "struct Upload.File",
          "name": "file",
          "type": "tuple"
        }
      ],
      "name": "add",
      "outputs": [],
      "stateMutability": "nonpayable",
      "type": "function"
    },
    {
      "inputs": [
        {
          "internalType": "string",
          "name": "_hash",
          "type": "string"
        }
      ],
      "name": "deleteFile",
      "outputs": [],
      "stateMutability": "nonpayable",
      "type": "function"
    },
    {
      "inputs": [
        {
          "internalType": "address",
          "name": "_user",
          "type": "address"
        }
      ],
      "name": "disallow",
      "outputs": [],
      "stateMutability": "nonpayable",
      "type": "function"
    },
    {
      "inputs": [
        {
          "internalType": "address",
          "name": "_user",
          "type": "address"
        }
      ],
      "name": "display",
      "outputs": [
        {
          "components": [
            {
              "internalType": "string",
              "name": "fileName",
              "type": "string"
            },
            {
              "internalType": "string",
              "name": "hash",
              "type": "string"
            },
            {
              "internalType": "string",
              "name": "fileType",
              "type": "string"
            },
            {
              "internalType": "string",
              "name": "uploadDate",
              "type": "string"
            }
          ],
          "internalType": "struct Upload.File[]",
          "name": "",
          "type": "tuple[]"
        }
      ],
      "stateMutability": "view",
      "type": "function"
    },
    {
      "inputs": [
        {
          "internalType": "address",
          "name": "_user",
          "type": "address"
        }
      ],
      "name": "shareAccess",
      "outputs": [],
      "stateMutability": "nonpayable",
      "type": "function"
    },
    {
      "inputs": [],
      "name": "shareAccessList",
      "outputs": [
        {
          "components": [
            {
              "internalType": "address",
              "name": "user",
              "type": "address"
            },
            {
              "internalType": "bool",
              "name": "access",
              "type": "bool"
            }
          ],
          "internalType": "struct Upload.Access[]",
          "name": "",
          "type": "tuple[]"
        }
      ],
      "stateMutability": "view",
      "type": "function"
    }
  ],
  "bytecode": "0x608060405234801561001057600080fd5b5061202a806100206000396000f3fe608060405234801561001057600080fd5b50600436106100625760003560e01c8063a991005414610067578063a9ed9cb814610083578063d4f375301461009f578063e07554d2146100bb578063e6918916146100d9578063eb39113f146100f5575b600080fd5b610081600480360381019061007c9190611522565b610125565b005b61009d600480360381019061009891906115c9565b6106c4565b005b6100b960048036038101906100b491906115c9565b61096d565b005b6100c3610db0565b6040516100d091906116fe565b60405180910390f35b6100f360048036038101906100ee9190611812565b610eb8565b005b61010f600480360381019061010a91906115c9565b610f7f565b60405161011c9190611a27565b60405180910390f35b60005b600160003373ffffffffffffffffffffffffffffffffffffffff1673ffffffffffffffffffffffffffffffffffffffff168152602001908152602001600020805490508110156106c0576000600160003373ffffffffffffffffffffffffffffffffffffffff1673ffffffffffffffffffffffffffffffffffffffff16815260200190815260200160002082815481106101c5576101c4611a49565b5b90600052602060002090600402016040518060800160405290816000820180546101ee90611aa7565b80601f016020809104026020016040519081016040528092919081815260200182805461021a90611aa7565b80156102675780601f1061023c57610100808354040283529160200191610267565b820191906000526020600020905b81548152906001019060200180831161024a57829003601f168201915b5050505050815260200160018201805461028090611aa7565b80601f01602080910402602001604051908101604052809291908181526020018280546102ac90611aa7565b80156102f95780601f106102ce576101008083540402835291602001916102f9565b820191906000526020600020905b8154815290600101906020018083116102dc57829003601f168201915b5050505050815260200160028201805461031290611aa7565b80601f016020809104026020016040519081016040528092919081815260200182805461033e90611aa7565b801561038b5780601f106103605761010080835404028352916020019161038b565b820191906000526020600020905b81548152906001019060200180831161036e57829003601f168201915b505050505081526020016003820180546103a490611aa7565b80601f01602080910402602001604051908101604052809291908181526020018280546103d090611aa7565b801561041d5780601f106103f25761010080835404028352916020019161041d565b820191906000526020600020905b81548152906001019060200180831161040057829003601f168201915b5050505050815250509050826040516020016104399190611b14565b6040516020818303038152906040528051906020012081602001516040516020016104649190611b14565b60405160208183030381529060405280519060200120036106b25760008290505b60018060003373ffffffffffffffffffffffffffffffffffffffff1673ffffffffffffffffffffffffffffffffffffffff168152602001908152602001600020805490506104d39190611b64565b81101561060857600160003373ffffffffffffffffffffffffffffffffffffffff1673ffffffffffffffffffffffffffffffffffffffff1681526020019081526020016000206001826105269190611b98565b8154811061053757610536611a49565b5b9060005260206000209060040201600160003373ffffffffffffffffffffffffffffffffffffffff1673ffffffffffffffffffffffffffffffffffffffff168152602001908152602001600020828154811061059657610595611a49565b5b9060005260206000209060040201600082018160000190816105b89190611d8e565b50600182018160010190816105cd9190611d8e565b50600282018160020190816105e29190611d8e565b50600382018160030190816105f79190611d8e565b509050508080600101915050610485565b50600160003373ffffffffffffffffffffffffffffffffffffffff1673ffffffffffffffffffffffffffffffffffffffff16815260200190815260200160002080548061065857610657611e76565b5b60019003818190600052602060002090600402016000808201600061067d919061136b565b60018201600061068d919061136b565b60028201600061069d919061136b565b6003820160006106ad919061136b565b505090555b508080600101915050610128565b5050565b6000600260003373ffffffffffffffffffffffffffffffffffffffff1673ffffffffffffffffffffffffffffffffffffffff16815260200190815260200160002060008373ffffffffffffffffffffffffffffffffffffffff1673ffffffffffffffffffffffffffffffffffffffff16815260200190815260200160002060006101000a81548160ff021916908315150217905550600360003373ffffffffffffffffffffffffffffffffffffffff1673ffffffffffffffffffffffffffffffffffffffff16815260200190815260200160002060008273ffffffffffffffffffffffffffffffffffffffff1673ffffffffffffffffffffffffffffffffffffffff16815260200190815260200160002060009054906101000a900460ff161561096a5760005b6000803373ffffffffffffffffffffffffffffffffffffffff1673ffffffffffffffffffffffffffffffffffffffff16815260200190815260200160002080549050811015610968578173ffffffffffffffffffffffffffffffffffffffff166000803373ffffffffffffffffffffffffffffffffffffffff1673ffffffffffffffffffffffffffffffffffffffff168152602001908152602001600020828154811061089b5761089a611a49565b5b9060005260206000200160000160009054906101000a900473ffffffffffffffffffffffffffffffffffffffff1673ffffffffffffffffffffffffffffffffffffffff160361095b5760008060003373ffffffffffffffffffffffffffffffffffffffff1673ffffffffffffffffffffffffffffffffffffffff168152602001908152602001600020828154811061093657610935611a49565b5b9060005260206000200160000160146101000a81548160ff0219169083151502179055505b80806001019150506107eb565b505b50565b6001600260003373ffffffffffffffffffffffffffffffffffffffff1673ffffffffffffffffffffffffffffffffffffffff16815260200190815260200160002060008373ffffffffffffffffffffffffffffffffffffffff1673ffffffffffffffffffffffffffffffffffffffff16815260200190815260200160002060006101000a81548160ff02191690831515021790555060001515600360003373ffffffffffffffffffffffffffffffffffffffff1673ffffffffffffffffffffffffffffffffffffffff16815260200190815260200160002060008373ffffffffffffffffffffffffffffffffffffffff1673ffffffffffffffffffffffffffffffffffffffff16815260200190815260200160002060009054906101000a900460ff16151503610c2b576000803373ffffffffffffffffffffffffffffffffffffffff1673ffffffffffffffffffffffffffffffffffffffff16815260200190815260200160002060405180604001604052808373ffffffffffffffffffffffffffffffffffffffff168152602001600115158152509080600181540180825580915050600190039060005260206000200160009091909190915060008201518160000160006101000a81548173ffffffffffffffffffffffffffffffffffffffff021916908373ffffffffffffffffffffffffffffffffffffffff16021790555060208201518160000160146101000a81548160ff02191690831515021790555050506001600360003373ffffffffffffffffffffffffffffffffffffffff1673ffffffffffffffffffffffffffffffffffffffff16815260200190815260200160002060008373ffffffffffffffffffffffffffffffffffffffff1673ffffffffffffffffffffffffffffffffffffffff16815260200190815260200160002060006101000a81548160ff021916908315150217905550610dad565b60005b6000803373ffffffffffffffffffffffffffffffffffffffff1673ffffffffffffffffffffffffffffffffffffffff16815260200190815260200160002080549050811015610dab578173ffffffffffffffffffffffffffffffffffffffff166000803373ffffffffffffffffffffffffffffffffffffffff1673ffffffffffffffffffffffffffffffffffffffff1681526020019081526020016000208281548110610cde57610cdd611a49565b5b9060005260206000200160000160009054906101000a900473ffffffffffffffffffffffffffffffffffffffff1673ffffffffffffffffffffffffffffffffffffffff1603610d9e5760016000803373ffffffffffffffffffffffffffffffffffffffff1673ffffffffffffffffffffffffffffffffffffffff1681526020019081526020016000208281548110610d7957610d78611a49565b5b9060005260206000200160000160146101000a81548160ff0219169083151502179055505b8080600101915050610c2e565b505b50565b60606000803373ffffffffffffffffffffffffffffffffffffffff1673ffffffffffffffffffffffffffffffffffffffff168152602001908152602001600020805480602002602001604051908101604052809291908181526020016000905b82821015610eaf578382906000526020600020016040518060400160405290816000820160009054906101000a900473ffffffffffffffffffffffffffffffffffffffff1673ffffffffffffffffffffffffffffffffffffffff1673ffffffffffffffffffffffffffffffffffffffff1681526020016000820160149054906101000a900460ff16151515158152505081526020019060010190610e10565b50505050905090565b600160008373ffffffffffffffffffffffffffffffffffffffff1673ffffffffffffffffffffffffffffffffffffffff1681526020019081526020016000208190806001815401808255809150506001900390600052602060002090600402016000909190919091506000820151816000019081610f369190611ea5565b506020820151816001019081610f4c9190611ea5565b506040820151816002019081610f629190611ea5565b506060820151816003019081610f789190611ea5565b5050505050565b60603373ffffffffffffffffffffffffffffffffffffffff168273ffffffffffffffffffffffffffffffffffffffff161480611048575060011515600260008473ffffffffffffffffffffffffffffffffffffffff1673ffffffffffffffffffffffffffffffffffffffff16815260200190815260200160002060003373ffffffffffffffffffffffffffffffffffffffff1673ffffffffffffffffffffffffffffffffffffffff16815260200190815260200160002060009054906101000a900460ff161515145b611087576040517f08c379a000000000000000000000000000000000000000000000000000000000815260040161107e90611fd4565b60405180910390fd5b600160008373ffffffffffffffffffffffffffffffffffffffff1673ffffffffffffffffffffffffffffffffffffffff168152602001908152602001600020805480602002602001604051908101604052809291908181526020016000905b82821015611360578382906000526020600020906004020160405180608001604052908160008201805461111990611aa7565b80601f016020809104026020016040519081016040528092919081815260200182805461114590611aa7565b80156111925780601f1061116757610100808354040283529160200191611192565b820191906000526020600020905b81548152906001019060200180831161117557829003601f168201915b505050505081526020016001820180546111ab90611aa7565b80601f01602080910402602001604051908101604052809291908181526020018280546111d790611aa7565b80156112245780601f106111f957610100808354040283529160200191611224565b820191906000526020600020905b81548152906001019060200180831161120757829003601f168201915b5050505050815260200160028201805461123d90611aa7565b80601f016020809104026020016040519081016040528092919081815260200182805461126990611aa7565b80156112b65780601f1061128b576101008083540402835291602001916112b6565b820191906000526020600020905b81548152906001019060200180831161129957829003601f168201915b505050505081526020016003820180546112cf90611aa7565b80601f01602080910402602001604051908101604052809291908181526020018280546112fb90611aa7565b80156113485780601f1061131d57610100808354040283529160200191611348565b820191906000526020600020905b81548152906001019060200180831161132b57829003601f168201915b505050505081525050815260200190600101906110e6565b505050509050919050565b50805461137790611aa7565b6000825580601f1061138957506113a8565b601f0160209004906000526020600020908101906113a791906113ab565b5b50565b5b808211156113c45760008160009055506001016113ac565b5090565b6000604051905090565b600080fd5b600080fd5b600080fd5b600080fd5b6000601f19601f8301169050919050565b7f4e487b7100000000000000000000000000000000000000000000000000000000600052604160045260246000fd5b61142f826113e6565b810181811067ffffffffffffffff8211171561144e5761144d6113f7565b5b80604052505050565b60006114616113c8565b905061146d8282611426565b919050565b600067ffffffffffffffff82111561148d5761148c6113f7565b5b611496826113e6565b9050602081019050919050565b82818337600083830152505050565b60006114c56114c084611472565b611457565b9050828152602081018484840111156114e1576114e06113e1565b5b6114ec8482856114a3565b509392505050565b600082601f830112611509576115086113dc565b5b81356115198482602086016114b2565b91505092915050565b600060208284031215611538576115376113d2565b5b600082013567ffffffffffffffff811115611556576115556113d7565b5b611562848285016114f4565b91505092915050565b600073ffffffffffffffffffffffffffffffffffffffff82169050919050565b60006115968261156b565b9050919050565b6115a68161158b565b81146115b157600080fd5b50565b6000813590506115c38161159d565b92915050565b6000602082840312156115df576115de6113d2565b5b60006115ed848285016115b4565b91505092915050565b600081519050919050565b600082825260208201905092915050565b6000819050602082019050919050565b61162b8161158b565b82525050565b60008115159050919050565b61164681611631565b82525050565b6040820160008201516116626000850182611622565b506020820151611675602085018261163d565b50505050565b6000611687838361164c565b60408301905092915050565b6000602082019050919050565b60006116ab826115f6565b6116b58185611601565b93506116c083611612565b8060005b838110156116f15781516116d8888261167b565b97506116e383611693565b9250506001810190506116c4565b5085935050505092915050565b6000602082019050818103600083015261171881846116a0565b905092915050565b600080fd5b600080fd5b6000608082840312156117405761173f611720565b5b61174a6080611457565b9050600082013567ffffffffffffffff81111561176a57611769611725565b5b611776848285016114f4565b600083015250602082013567ffffffffffffffff81111561179a57611799611725565b5b6117a6848285016114f4565b602083015250604082013567ffffffffffffffff8111156117ca576117c9611725565b5b6117d6848285016114f4565b604083015250606082013567ffffffffffffffff8111156117fa576117f9611725565b5b611806848285016114f4565b60608301525092915050565b60008060408385031215611829576118286113d2565b5b6000611837858286016115b4565b925050602083013567ffffffffffffffff811115611858576118576113d7565b5b6118648582860161172a565b9150509250929050565b600081519050919050565b600082825260208201905092915050565b6000819050602082019050919050565b600081519050919050565b600082825260208201905092915050565b60005b838110156118d45780820151818401526020810190506118b9565b60008484015250505050565b60006118eb8261189a565b6118f581856118a5565b93506119058185602086016118b6565b61190e816113e6565b840191505092915050565b6000608083016000830151848203600086015261193682826118e0565b9150506020830151848203602086015261195082826118e0565b9150506040830151848203604086015261196a82826118e0565b9150506060830151848203606086015261198482826118e0565b9150508091505092915050565b600061199d8383611919565b905092915050565b6000602082019050919050565b60006119bd8261186e565b6119c78185611879565b9350836020820285016119d98561188a565b8060005b85811015611a1557848403895281516119f68582611991565b9450611a01836119a5565b925060208a019950506001810190506119dd565b50829750879550505050505092915050565b60006020820190508181036000830152611a4181846119b2565b905092915050565b7f4e487b7100000000000000000000000000000000000000000000000000000000600052603260045260246000fd5b7f4e487b7100000000000000000000000000000000000000000000000000000000600052602260045260246000fd5b60006002820490506001821680611abf57607f821691505b602082108103611ad257611ad1611a78565b5b50919050565b600081905092915050565b6000611aee8261189a565b611af88185611ad8565b9350611b088185602086016118b6565b80840191505092915050565b6000611b208284611ae3565b915081905092915050565b6000819050919050565b7f4e487b7100000000000000000000000000000000000000000000000000000000600052601160045260246000fd5b6000611b6f82611b2b565b9150611b7a83611b2b565b9250828203905081811115611b9257611b91611b35565b5b92915050565b6000611ba382611b2b565b9150611bae83611b2b565b9250828201905080821115611bc657611bc5611b35565b5b92915050565b600081549050611bdb81611aa7565b9050919050565b60008190508160005260206000209050919050565b60006020601f8301049050919050565b600082821b905092915050565b600060088302611c447fffffffffffffffffffffffffffffffffffffffffffffffffffffffffffffffff82611c07565b611c4e8683611c07565b95508019841693508086168417925050509392505050565b6000819050919050565b6000611c8b611c86611c8184611b2b565b611c66565b611b2b565b9050919050565b6000819050919050565b611ca583611c70565b611cb9611cb182611c92565b848454611c14565b825550505050565b600090565b611cce611cc1565b611cd9818484611c9c565b505050565b5b81811015611cfd57611cf2600082611cc6565b600181019050611cdf565b5050565b601f821115611d4257611d1381611be2565b611d1c84611bf7565b81016020851015611d2b578190505b611d3f611d3785611bf7565b830182611cde565b50505b505050565b600082821c905092915050565b6000611d6560001984600802611d47565b1980831691505092915050565b6000611d7e8383611d54565b9150826002028217905092915050565b818103611d9c575050611e74565b611da582611bcc565b67ffffffffffffffff811115611dbe57611dbd6113f7565b5b611dc88254611aa7565b611dd3828285611d01565b6000601f831160018114611e025760008415611df0578287015490505b611dfa8582611d72565b865550611e6d565b601f198416611e1087611be2565b9650611e1b86611be2565b60005b82811015611e4357848901548255600182019150600185019450602081019050611e1e565b86831015611e605784890154611e5c601f891682611d54565b8355505b6001600288020188555050505b5050505050505b565b7f4e487b7100000000000000000000000000000000000000000000000000000000600052603160045260246000fd5b611eae8261189a565b67ffffffffffffffff811115611ec757611ec66113f7565b5b611ed18254611aa7565b611edc828285611d01565b600060209050601f831160018114611f0f5760008415611efd578287015190505b611f078582611d72565b865550611f6f565b601f198416611f1d86611be2565b60005b82811015611f4557848901518255600182019150602085019450602081019050611f20565b86831015611f625784890151611f5e601f891682611d54565b8355505b6001600288020188555050505b505050505050565b600082825260208201905092915050565b7f596f7520646f6e27742068617665206163636573730000000000000000000000600082015250565b6000611fbe601583611f77565b9150611fc982611f88565b602082019050919050565b60006020820190508181036000830152611fed81611fb1565b905091905056fea2646970667358221220fdabf548266eb236ed4476e7b6ebc8669ff809fe784e2814b2d06776461d658b64736f6c63430008180033",
  "linkReferences": {},
  "deployedLinkReferences": {}
}